{
  "_format": "hh-sol-artifact-1",
  "contractName": "Escrow",
  "sourceName": "contracts/Escrow.sol",
  "abi": [
    {
      "inputs": [
        {
          "internalType": "address",
          "name": "_token",
          "type": "address"
        },
        {
          "internalType": "address payable",
          "name": "_canceler",
          "type": "address"
        },
        {
          "internalType": "uint256",
          "name": "_duration",
          "type": "uint256"
        },
        {
          "internalType": "address[]",
          "name": "_handlers",
          "type": "address[]"
        }
      ],
      "stateMutability": "nonpayable",
      "type": "constructor"
    },
    {
      "anonymous": false,
      "inputs": [
        {
          "indexed": true,
          "internalType": "uint256",
          "name": "_txId",
          "type": "uint256"
        },
        {
          "indexed": false,
          "internalType": "uint256",
          "name": "_bulkCount",
          "type": "uint256"
        }
      ],
      "name": "BulkTransfer",
      "type": "event"
    },
    {
      "anonymous": false,
      "inputs": [],
      "name": "Cancelled",
      "type": "event"
    },
    {
      "anonymous": false,
      "inputs": [],
      "name": "Completed",
      "type": "event"
    },
    {
      "anonymous": false,
      "inputs": [
        {
          "indexed": false,
          "internalType": "string",
          "name": "_url",
          "type": "string"
        },
        {
          "indexed": false,
          "internalType": "string",
          "name": "_hash",
          "type": "string"
        }
      ],
      "name": "IntermediateStorage",
      "type": "event"
    },
    {
      "anonymous": false,
      "inputs": [
        {
          "indexed": false,
          "internalType": "string",
          "name": "manifest",
          "type": "string"
        },
        {
          "indexed": false,
          "internalType": "string",
          "name": "hash",
          "type": "string"
        }
      ],
      "name": "Pending",
      "type": "event"
    },
    {
      "anonymous": false,
      "inputs": [
        {
          "indexed": false,
          "internalType": "address",
          "name": "_handler",
          "type": "address"
        }
      ],
      "name": "TrustedHandlerAdded",
      "type": "event"
    },
    {
      "inputs": [],
      "name": "abort",
      "outputs": [],
      "stateMutability": "nonpayable",
      "type": "function"
    },
    {
      "inputs": [
        {
          "internalType": "address[]",
          "name": "_handlers",
          "type": "address[]"
        }
      ],
      "name": "addTrustedHandlers",
      "outputs": [],
      "stateMutability": "nonpayable",
      "type": "function"
    },
    {
      "inputs": [
        {
          "internalType": "address",
          "name": "",
          "type": "address"
        }
      ],
      "name": "areTrustedHandlers",
      "outputs": [
        {
          "internalType": "bool",
          "name": "",
          "type": "bool"
        }
      ],
      "stateMutability": "view",
      "type": "function"
    },
    {
      "inputs": [],
      "name": "bulkPaid",
      "outputs": [
        {
          "internalType": "bool",
          "name": "",
          "type": "bool"
        }
      ],
      "stateMutability": "view",
      "type": "function"
    },
    {
      "inputs": [
        {
          "internalType": "address[]",
          "name": "_recipients",
          "type": "address[]"
        },
        {
          "internalType": "uint256[]",
          "name": "_amounts",
          "type": "uint256[]"
        },
        {
          "internalType": "string",
          "name": "_url",
          "type": "string"
        },
        {
          "internalType": "string",
          "name": "_hash",
          "type": "string"
        },
        {
          "internalType": "uint256",
          "name": "_txId",
          "type": "uint256"
        }
      ],
      "name": "bulkPayOut",
      "outputs": [
        {
          "internalType": "bool",
          "name": "",
          "type": "bool"
        }
      ],
      "stateMutability": "nonpayable",
      "type": "function"
    },
    {
      "inputs": [],
      "name": "cancel",
      "outputs": [
        {
          "internalType": "bool",
          "name": "",
          "type": "bool"
        }
      ],
      "stateMutability": "nonpayable",
      "type": "function"
    },
    {
      "inputs": [],
      "name": "canceler",
      "outputs": [
        {
          "internalType": "address payable",
          "name": "",
          "type": "address"
        }
      ],
      "stateMutability": "view",
      "type": "function"
    },
    {
      "inputs": [],
      "name": "complete",
      "outputs": [],
      "stateMutability": "nonpayable",
      "type": "function"
    },
    {
      "inputs": [],
      "name": "duration",
      "outputs": [
        {
          "internalType": "uint256",
          "name": "",
          "type": "uint256"
        }
      ],
      "stateMutability": "view",
      "type": "function"
    },
    {
      "inputs": [
        {
          "internalType": "uint256",
          "name": "",
          "type": "uint256"
        }
      ],
      "name": "finalAmounts",
      "outputs": [
        {
          "internalType": "uint256",
          "name": "",
          "type": "uint256"
        }
      ],
      "stateMutability": "view",
      "type": "function"
    },
    {
      "inputs": [],
      "name": "finalResultsHash",
      "outputs": [
        {
          "internalType": "string",
          "name": "",
          "type": "string"
        }
      ],
      "stateMutability": "view",
      "type": "function"
    },
    {
      "inputs": [],
      "name": "finalResultsUrl",
      "outputs": [
        {
          "internalType": "string",
          "name": "",
          "type": "string"
        }
      ],
      "stateMutability": "view",
      "type": "function"
    },
    {
      "inputs": [],
      "name": "getBalance",
      "outputs": [
        {
          "internalType": "uint256",
          "name": "",
          "type": "uint256"
        }
      ],
      "stateMutability": "view",
      "type": "function"
    },
    {
      "inputs": [],
      "name": "launcher",
      "outputs": [
        {
          "internalType": "address",
          "name": "",
          "type": "address"
        }
      ],
      "stateMutability": "view",
      "type": "function"
    },
    {
      "inputs": [],
      "name": "manifestHash",
      "outputs": [
        {
          "internalType": "string",
          "name": "",
          "type": "string"
        }
      ],
      "stateMutability": "view",
      "type": "function"
    },
    {
      "inputs": [],
      "name": "manifestUrl",
      "outputs": [
        {
          "internalType": "string",
          "name": "",
          "type": "string"
        }
      ],
      "stateMutability": "view",
      "type": "function"
    },
    {
      "inputs": [],
      "name": "recordingOracle",
      "outputs": [
        {
          "internalType": "address",
          "name": "",
          "type": "address"
        }
      ],
      "stateMutability": "view",
      "type": "function"
    },
    {
      "inputs": [],
      "name": "recordingOracleStake",
      "outputs": [
        {
          "internalType": "uint256",
          "name": "",
          "type": "uint256"
        }
      ],
      "stateMutability": "view",
      "type": "function"
    },
    {
      "inputs": [],
      "name": "remainingSolutions",
      "outputs": [
        {
          "internalType": "uint256",
          "name": "",
          "type": "uint256"
        }
      ],
      "stateMutability": "view",
      "type": "function"
    },
    {
      "inputs": [],
      "name": "reputationOracle",
      "outputs": [
        {
          "internalType": "address",
          "name": "",
          "type": "address"
        }
      ],
      "stateMutability": "view",
      "type": "function"
    },
    {
      "inputs": [],
      "name": "reputationOracleStake",
      "outputs": [
        {
          "internalType": "uint256",
          "name": "",
          "type": "uint256"
        }
      ],
      "stateMutability": "view",
      "type": "function"
    },
    {
      "inputs": [
        {
          "internalType": "address",
          "name": "_reputationOracle",
          "type": "address"
        },
        {
          "internalType": "address",
          "name": "_recordingOracle",
          "type": "address"
        },
        {
          "internalType": "uint256",
          "name": "_reputationOracleStake",
          "type": "uint256"
        },
        {
          "internalType": "uint256",
          "name": "_recordingOracleStake",
          "type": "uint256"
        },
        {
          "internalType": "string",
          "name": "_url",
          "type": "string"
        },
        {
          "internalType": "string",
          "name": "_hash",
          "type": "string"
        },
        {
          "internalType": "uint256",
          "name": "_solutionsRequested",
          "type": "uint256"
        }
      ],
      "name": "setup",
      "outputs": [],
      "stateMutability": "nonpayable",
      "type": "function"
    },
    {
      "inputs": [],
      "name": "status",
      "outputs": [
        {
          "internalType": "enum IEscrow.EscrowStatuses",
          "name": "",
          "type": "uint8"
        }
      ],
      "stateMutability": "view",
      "type": "function"
    },
    {
      "inputs": [
        {
          "internalType": "string",
          "name": "_url",
          "type": "string"
        },
        {
          "internalType": "string",
          "name": "_hash",
          "type": "string"
        }
      ],
      "name": "storeResults",
      "outputs": [],
      "stateMutability": "nonpayable",
      "type": "function"
    },
    {
      "inputs": [],
      "name": "token",
      "outputs": [
        {
          "internalType": "address",
          "name": "",
          "type": "address"
        }
      ],
      "stateMutability": "view",
      "type": "function"
    }
  ],
  "bytecode": "0x60806040523480156200001157600080fd5b50604051620034013803806200340183398101604081905262000034916200043a565b600160005560408051808201909152601481527f457363726f773a207a65726f206164647265737300000000000000000000000060208201526001600160a01b038516620000a05760405162461bcd60e51b815260040162000097919062000542565b60405180910390fd5b5060408051808201909152601481527f457363726f773a207a65726f206164647265737300000000000000000000000060208201526001600160a01b038416620000ff5760405162461bcd60e51b815260040162000097919062000542565b50600780546001600160a01b0319166001600160a01b0386161790556001805460ff191690556200013d8242620001ac602090811b62001cb917901c565b600d55600380546001600160a01b031990811633908117909255600480546001600160a01b038716921682179055600090815260106020526040808220805460ff19908116600190811790925593835291208054909216179055620001a28162000216565b50505050620005ff565b600080620001bb8385620005b0565b9050838110156200020f5760405162461bcd60e51b815260206004820152601b60248201527f536166654d6174683a206164646974696f6e206f766572666c6f770000000000604482015260640162000097565b9392505050565b3360009081526010602052604090205460ff166200028b5760405162461bcd60e51b815260206004820152602b60248201527f416464726573732063616c6c696e672063616e6e6f742061646420747275737460448201526a65642068616e646c65727360a81b606482015260840162000097565b60005b8151811015620003f55760006001600160a01b0316828281518110620002b857620002b8620005cb565b60200260200101516001600160a01b031614156040518060400160405280601481526020017f457363726f773a207a65726f206164647265737300000000000000000000000081525090620003225760405162461bcd60e51b815260040162000097919062000542565b506001601060008484815181106200033e576200033e620005cb565b60200260200101516001600160a01b03166001600160a01b0316815260200190815260200160002060006101000a81548160ff0219169083151502179055507fad3769ac0c1a91ee9dcf369f6d2989f91572b6f876933bbc82ab85f6b969a07a828281518110620003b357620003b3620005cb565b6020026020010151604051620003d891906001600160a01b0391909116815260200190565b60405180910390a180620003ec81620005e1565b9150506200028e565b5050565b6001600160a01b03811681146200040f57600080fd5b50565b80516200041f81620003f9565b919050565b634e487b7160e01b600052604160045260246000fd5b600080600080608085870312156200045157600080fd5b84516200045e81620003f9565b809450506020808601516200047381620003f9565b6040870151606088015191955093506001600160401b03808211156200049857600080fd5b818801915088601f830112620004ad57600080fd5b815181811115620004c257620004c262000424565b8060051b604051601f19603f83011681018181108582111715620004ea57620004ea62000424565b60405291825284820192508381018501918b8311156200050957600080fd5b938501935b828510156200053257620005228562000412565b845293850193928501926200050e565b989b979a50959850505050505050565b600060208083528351808285015260005b81811015620005715785810183015185820160400152820162000553565b8181111562000584576000604083870101525b50601f01601f1916929092016040019392505050565b634e487b7160e01b600052601160045260246000fd5b60008219821115620005c657620005c66200059a565b500190565b634e487b7160e01b600052603260045260246000fd5b6000600019821415620005f857620005f86200059a565b5060010190565b612df2806200060f6000396000f3fe608060405234801561001057600080fd5b50600436106101a35760003560e01c80636a9e1288116100ee578063bb19d62f11610097578063ea8a1af011610071578063ea8a1af014610341578063f17171e914610349578063fad844c11461036c578063fc0c546a1461039157600080fd5b8063bb19d62f14610318578063cc06cfa914610321578063d65281f01461032e57600080fd5b80639c48b102116100c85780639c48b102146102da5780639eb262f3146102e2578063b63d1a00146102f557600080fd5b80636a9e1288146102875780639753e4321461029a578063992d454d146102ba57600080fd5b8063200d2ed21161015057806343aba9c21161012a57806343aba9c214610264578063522e11771461026c578063697e4b871461027457600080fd5b8063200d2ed214610238578063337f3f321461025257806335a063b41461025a57600080fd5b806312065fe01161018157806312065fe0146101e257806315a33b8c146101ea57806316eebd1e146101f357600080fd5b80630529198f146101a85780630f46c9aa146101c45780630fb5a6b4146101d9575b600080fd5b6101b160065481565b6040519081526020015b60405180910390f35b6101cc6103b1565b6040516101bb91906125ec565b6101b1600d5481565b6101b161043f565b6101b1600a5481565b6003546102139073ffffffffffffffffffffffffffffffffffffffff1681565b60405173ffffffffffffffffffffffffffffffffffffffff90911681526020016101bb565b6001546102459060ff1681565b6040516101bb919061262e565b6101cc610586565b610262610593565b005b6101cc610745565b610262610752565b61026261028236600461277b565b61090c565b610262610295366004612808565b610afd565b6002546102139073ffffffffffffffffffffffffffffffffffffffff1681565b6004546102139073ffffffffffffffffffffffffffffffffffffffff1681565b6101cc610fd6565b6102626102f0366004612940565b610fe3565b610308610303366004612975565b61123a565b60405190151581526020016101bb565b6101b160055481565b600f546103089060ff1681565b6101b161033c366004612a7e565b611a19565b610308611a3a565b610308610357366004612a97565b60106020526000908152604090205460ff1681565b60015461021390610100900473ffffffffffffffffffffffffffffffffffffffff1681565b6007546102139073ffffffffffffffffffffffffffffffffffffffff1681565b600c80546103be90612ab2565b80601f01602080910402602001604051908101604052809291908181526020018280546103ea90612ab2565b80156104375780601f1061040c57610100808354040283529160200191610437565b820191906000526020600020905b81548152906001019060200180831161041a57829003601f168201915b505050505081565b6007546040513060248201526000918291829173ffffffffffffffffffffffffffffffffffffffff16907f70a08231b98ef4ca268c9cc3f6b4590e4bfec28280db06bb5d45e689f2a360be90604401604080517fffffffffffffffffffffffffffffffffffffffffffffffffffffffffffffffe08184030181529181526020820180517bffffffffffffffffffffffffffffffffffffffffffffffffffffffff167fffffffff000000000000000000000000000000000000000000000000000000009094169390931790925290516105179190612b06565b600060405180830381855afa9150503d8060008114610552576040519150601f19603f3d011682016040523d82523d6000602084013e610557565b606091505b5091509150811561057d57808060200190518101906105769190612b22565b9250505090565b60009250505090565b600980546103be90612ab2565b3360009081526010602052604090205460ff16610611576040517f08c379a000000000000000000000000000000000000000000000000000000000815260206004820152601b60248201527f416464726573732063616c6c696e67206e6f742074727573746564000000000060448201526064015b60405180910390fd5b600460015460ff16600581111561062a5761062a6125ff565b1415610692576040517f08c379a000000000000000000000000000000000000000000000000000000000815260206004820152601f60248201527f457363726f7720696e20436f6d706c65746520737461747573207374617465006044820152606401610608565b600360015460ff1660058111156106ab576106ab6125ff565b1415610713576040517f08c379a000000000000000000000000000000000000000000000000000000000815260206004820152601b60248201527f457363726f7720696e20506169642073746174757320737461746500000000006044820152606401610608565b61071b61043f565b1561072a57610728611a3a565b505b60045473ffffffffffffffffffffffffffffffffffffffff16ff5b600b80546103be90612ab2565b42600d54116107bd576040517f08c379a000000000000000000000000000000000000000000000000000000000815260206004820152601060248201527f436f6e74726163742065787069726564000000000000000000000000000000006044820152606401610608565b3360009081526010602052604090205460ff16610836576040517f08c379a000000000000000000000000000000000000000000000000000000000815260206004820152601e60248201527f416464726573732063616c6c696e67206973206e6f74207472757374656400006044820152606401610608565b600360015460ff16600581111561084f5761084f6125ff565b146108b6576040517f08c379a000000000000000000000000000000000000000000000000000000000815260206004820152601860248201527f457363726f77206e6f7420696e205061696420737461746500000000000000006044820152606401610608565b600180547fffffffffffffffffffffffffffffffffffffffffffffffffffffffffffffff001660041790556040517fe06452d00b2b58f14a1fa6d499ea982ff93ea827ae700ea9ba03f4daddc94bc190600090a1565b3360009081526010602052604090205460ff16610985576040517f08c379a000000000000000000000000000000000000000000000000000000000815260206004820152601b60248201527f416464726573732063616c6c696e67206e6f74207472757374656400000000006044820152606401610608565b42600d54116109f0576040517f08c379a000000000000000000000000000000000000000000000000000000000815260206004820152601060248201527f436f6e74726163742065787069726564000000000000000000000000000000006044820152606401610608565b6001805460ff166005811115610a0857610a086125ff565b1480610a2a5750600260015460ff166005811115610a2857610a286125ff565b145b610ab6576040517f08c379a000000000000000000000000000000000000000000000000000000000815260206004820152602d60248201527f457363726f77206e6f7420696e2050656e64696e67206f72205061727469616c60448201527f20737461747573207374617465000000000000000000000000000000000000006064820152608401610608565b610ac08282611d3b565b7fb20e0717219840fd5684a80bec782e8babb56ea224f677561b791a61192605c18282604051610af1929190612b3b565b60405180910390a15050565b3360009081526010602052604090205460ff16610b76576040517f08c379a000000000000000000000000000000000000000000000000000000000815260206004820152601b60248201527f416464726573732063616c6c696e67206e6f74207472757374656400000000006044820152606401610608565b42600d5411610be1576040517f08c379a000000000000000000000000000000000000000000000000000000000815260206004820152601060248201527f436f6e74726163742065787069726564000000000000000000000000000000006044820152606401610608565b73ffffffffffffffffffffffffffffffffffffffff8716610c5e576040517f08c379a000000000000000000000000000000000000000000000000000000000815260206004820181905260248201527f496e76616c6964206f72206d697373696e6720746f6b656e207370656e6465726044820152606401610608565b73ffffffffffffffffffffffffffffffffffffffff8616610cdb576040517f08c379a000000000000000000000000000000000000000000000000000000000815260206004820181905260248201527f496e76616c6964206f72206d697373696e6720746f6b656e207370656e6465726044820152606401610608565b60008111610d45576040517f08c379a000000000000000000000000000000000000000000000000000000000815260206004820152601c60248201527f496e76616c6964206f72206d697373696e6720736f6c7574696f6e73000000006044820152606401610608565b6000610d518686611cb9565b90506064811115610dbe576040517f08c379a000000000000000000000000000000000000000000000000000000000815260206004820152601360248201527f5374616b65206f7574206f6620626f756e6473000000000000000000000000006044820152606401610608565b600060015460ff166005811115610dd757610dd76125ff565b14610e64576040517f08c379a000000000000000000000000000000000000000000000000000000000815260206004820152602360248201527f457363726f77206e6f7420696e204c61756e636865642073746174757320737460448201527f61746500000000000000000000000000000000000000000000000000000000006064820152608401610608565b600180547fffffffffffffffffffffff0000000000000000000000000000000000000000ff1661010073ffffffffffffffffffffffffffffffffffffffff8b8116820292909217808455600280547fffffffffffffffffffffffff0000000000000000000000000000000000000000168c85161781559190048216600090815260106020908152604080832080547fffffffffffffffffffffffffffffffffffffffffffffffffffffffffffffff009081168817909155935490941682529290208054909116909217909155600587905560068690558451610f4c91600891908701906124bc565b508251610f609060099060208601906124bc565b50600a829055600180547fffffffffffffffffffffffffffffffffffffffffffffffffffffffffffffff0016811790556040517f8ec464ac0c8e44e17130cd1ffb09967fa6f2c33339289678a59ea0112cfc2aa990610fc490600890600990612c37565b60405180910390a15050505050505050565b600880546103be90612ab2565b3360009081526010602052604090205460ff16611082576040517f08c379a000000000000000000000000000000000000000000000000000000000815260206004820152602b60248201527f416464726573732063616c6c696e672063616e6e6f742061646420747275737460448201527f65642068616e646c6572730000000000000000000000000000000000000000006064820152608401610608565b60005b815181101561123657600073ffffffffffffffffffffffffffffffffffffffff168282815181106110b8576110b8612c5c565b602002602001015173ffffffffffffffffffffffffffffffffffffffff1614156040518060400160405280601481526020017f457363726f773a207a65726f206164647265737300000000000000000000000081525090611146576040517f08c379a000000000000000000000000000000000000000000000000000000000815260040161060891906125ec565b5060016010600084848151811061115f5761115f612c5c565b602002602001015173ffffffffffffffffffffffffffffffffffffffff1673ffffffffffffffffffffffffffffffffffffffff16815260200190815260200160002060006101000a81548160ff0219169083151502179055507fad3769ac0c1a91ee9dcf369f6d2989f91572b6f876933bbc82ab85f6b969a07a8282815181106111eb576111eb612c5c565b602002602001015160405161121c919073ffffffffffffffffffffffffffffffffffffffff91909116815260200190565b60405180910390a18061122e81612cba565b915050611085565b5050565b3360009081526010602052604081205460ff166112b3576040517f08c379a000000000000000000000000000000000000000000000000000000000815260206004820152601b60248201527f416464726573732063616c6c696e67206e6f74207472757374656400000000006044820152606401610608565b6112bb61043f565b611321576040517f08c379a000000000000000000000000000000000000000000000000000000000815260206004820152601b60248201527f546f6b656e20636f6e7472616374206f7574206f662066756e647300000000006044820152606401610608565b600060015460ff16600581111561133a5761133a6125ff565b14156113a2576040517f08c379a000000000000000000000000000000000000000000000000000000000815260206004820152601f60248201527f457363726f7720696e204c61756e6368656420737461747573207374617465006044820152606401610608565b600360015460ff1660058111156113bb576113bb6125ff565b1415611423576040517f08c379a000000000000000000000000000000000000000000000000000000000815260206004820152601b60248201527f457363726f7720696e20506169642073746174757320737461746500000000006044820152606401610608565b42600d541161148e576040517f08c379a000000000000000000000000000000000000000000000000000000000815260206004820152601060248201527f436f6e74726163742065787069726564000000000000000000000000000000006044820152606401610608565b611496611d84565b8451865114611527576040517f08c379a000000000000000000000000000000000000000000000000000000000815260206004820152602b60248201527f416d6f756e74206f6620726563697069656e747320616e642076616c7565732060448201527f646f6e2774206d617463680000000000000000000000000000000000000000006064820152608401610608565b8551606411611592576040517f08c379a000000000000000000000000000000000000000000000000000000000815260206004820152601360248201527f546f6f206d616e7920726563697069656e7473000000000000000000000000006044820152606401610608565b600460015460ff1660058111156115ab576115ab6125ff565b141580156115d05750600560015460ff1660058111156115cd576115cd6125ff565b14155b611636576040517f08c379a000000000000000000000000000000000000000000000000000000000815260206004820152600e60248201527f496e76616c6964207374617475730000000000000000000000000000000000006044820152606401610608565b600061164061043f565b600f80547fffffffffffffffffffffffffffffffffffffffffffffffffffffffffffffff0016905590506000805b87518110156116b7576116a388828151811061168c5761168c612c5c565b602002602001015183611cb990919063ffffffff16565b9150806116af81612cba565b91505061166e565b506b033b2e3c9fd0803ce8000000811061172d576040517f08c379a000000000000000000000000000000000000000000000000000000000815260206004820152601360248201527f42756c6b2076616c756520746f6f2068696768000000000000000000000000006044820152606401610608565b80821015611744575050600f5460ff169050611a06565b61174e8686611d3b565b60008061175a89611df8565b9150915060005b8a518110156117f3576000600e828154811061177f5761177f612c5c565b90600052602060002001549050806000141561179b57506117e3565b6000600e83815481106117b0576117b0612c5c565b90600052602060002001819055506117e18c83815181106117d3576117d3612c5c565b602002602001015182611f27565b505b6117ec81612cba565b9050611761565b50611800600e6000612540565b60015461182890610100900473ffffffffffffffffffffffffffffffffffffffff1683611f27565b60025461184b9073ffffffffffffffffffffffffffffffffffffffff1682611f27565b600f80547fffffffffffffffffffffffffffffffffffffffffffffffffffffffffffffff0016600117905561187e61043f565b600f5490945060ff16156119c2576001805460ff1660058111156118a4576118a46125ff565b14156118e757600180547fffffffffffffffffffffffffffffffffffffffffffffffffffffffffffffff001660021790558951600a546118e391611f4b565b600a555b60008411801561190d5750600260015460ff16600581111561190b5761190b6125ff565b145b80156119195750600a54155b1561196d576004546119419073ffffffffffffffffffffffffffffffffffffffff1685611f27565b600180547fffffffffffffffffffffffffffffffffffffffffffffffffffffffffffffff001660031790555b831580156119915750600260015460ff16600581111561198f5761198f6125ff565b145b156119c257600180547fffffffffffffffffffffffffffffffffffffffffffffffffffffffffffffff001660031790555b857f8ed71c3a6fb899bfe96968ade5a4119b380c0d642a775106eb80aa795450777e8b516040516119f591815260200190565b60405180910390a260019450505050505b611a106001600055565b95945050505050565b600e8181548110611a2957600080fd5b600091825260209091200154905081565b3360009081526010602052604081205460ff16611ab3576040517f08c379a000000000000000000000000000000000000000000000000000000000815260206004820152601b60248201527f416464726573732063616c6c696e67206e6f74207472757374656400000000006044820152606401610608565b611abb61043f565b611b21576040517f08c379a000000000000000000000000000000000000000000000000000000000815260206004820152601b60248201527f546f6b656e20636f6e7472616374206f7574206f662066756e647300000000006044820152606401610608565b600460015460ff166005811115611b3a57611b3a6125ff565b1415611ba2576040517f08c379a000000000000000000000000000000000000000000000000000000000815260206004820152601f60248201527f457363726f7720696e20436f6d706c65746520737461747573207374617465006044820152606401610608565b600360015460ff166005811115611bbb57611bbb6125ff565b1415611c23576040517f08c379a000000000000000000000000000000000000000000000000000000000815260206004820152601b60248201527f457363726f7720696e20506169642073746174757320737461746500000000006044820152606401610608565b611c2b611d84565b600454611c559073ffffffffffffffffffffffffffffffffffffffff16611c5061043f565b611f27565b600180547fffffffffffffffffffffffffffffffffffffffffffffffffffffffffffffff001660051790556040517f63b958841f79ab97cb5456da181454b9932c0e15a3b17f1cbd27e2a8bc61043790600090a1506001611cb66001600055565b90565b600080611cc68385612cf3565b905083811015611d32576040517f08c379a000000000000000000000000000000000000000000000000000000000815260206004820152601b60248201527f536166654d6174683a206164646974696f6e206f766572666c6f7700000000006044820152606401610608565b90505b92915050565b600081516000141580611d4e5750825115155b90508015611d7f578251611d6990600b9060208601906124bc565b508151611d7d90600c9060208501906124bc565b505b505050565b60026000541415611df1576040517f08c379a000000000000000000000000000000000000000000000000000000000815260206004820152601f60248201527f5265656e7472616e637947756172643a207265656e7472616e742063616c6c006044820152606401610608565b6002600055565b60008060008060005b8551811015611f1c576000611e456064611e3f898581518110611e2657611e26612c5c565b6020026020010151600554611f8d90919063ffffffff16565b90612042565b90506000611e7c6064611e3f8a8681518110611e6357611e63612c5c565b6020026020010151600654611f8d90919063ffffffff16565b90506000611eb682611eb0858c8881518110611e9a57611e9a612c5c565b6020026020010151611f4b90919063ffffffff16565b90611f4b565b9050611ec28684611cb9565b9550611ece8583611cb9565b600e80546001810182556000919091527fbb7b4a454dc3493923482f07822329ed19e8244eff582cc204f8554c3620c3fd01919091559350829150611f14905081612cba565b915050611e01565b509094909350915050565b6007546112369073ffffffffffffffffffffffffffffffffffffffff168383612084565b6000611d3283836040518060400160405280601e81526020017f536166654d6174683a207375627472616374696f6e206f766572666c6f770000815250612111565b600082611f9c57506000611d35565b6000611fa88385612d0b565b905082611fb58583612d48565b14611d32576040517f08c379a000000000000000000000000000000000000000000000000000000000815260206004820152602160248201527f536166654d6174683a206d756c7469706c69636174696f6e206f766572666c6f60448201527f77000000000000000000000000000000000000000000000000000000000000006064820152608401610608565b6000611d3283836040518060400160405280601a81526020017f536166654d6174683a206469766973696f6e206279207a65726f00000000000081525061215c565b6040805173ffffffffffffffffffffffffffffffffffffffff8416602482015260448082018490528251808303909101815260649091019091526020810180517bffffffffffffffffffffffffffffffffffffffffffffffffffffffff167fa9059cbb00000000000000000000000000000000000000000000000000000000179052611d7f9084906121a4565b6000818484111561214f576040517f08c379a000000000000000000000000000000000000000000000000000000000815260040161060891906125ec565b506000611a108486612d83565b60008183612197576040517f08c379a000000000000000000000000000000000000000000000000000000000815260040161060891906125ec565b506000611a108486612d48565b6000612206826040518060400160405280602081526020017f5361666545524332303a206c6f772d6c6576656c2063616c6c206661696c65648152508573ffffffffffffffffffffffffffffffffffffffff166122b09092919063ffffffff16565b805190915015611d7f57808060200190518101906122249190612d9a565b611d7f576040517f08c379a000000000000000000000000000000000000000000000000000000000815260206004820152602a60248201527f5361666545524332303a204552433230206f7065726174696f6e20646964206e60448201527f6f742073756363656564000000000000000000000000000000000000000000006064820152608401610608565b60606122bf84846000856122c7565b949350505050565b606082471015612359576040517f08c379a000000000000000000000000000000000000000000000000000000000815260206004820152602660248201527f416464726573733a20696e73756666696369656e742062616c616e636520666f60448201527f722063616c6c00000000000000000000000000000000000000000000000000006064820152608401610608565b6000808673ffffffffffffffffffffffffffffffffffffffff1685876040516123829190612b06565b60006040518083038185875af1925050503d80600081146123bf576040519150601f19603f3d011682016040523d82523d6000602084013e6123c4565b606091505b50915091506123d5878383876123e0565b979650505050505050565b6060831561247357825161246c5773ffffffffffffffffffffffffffffffffffffffff85163b61246c576040517f08c379a000000000000000000000000000000000000000000000000000000000815260206004820152601d60248201527f416464726573733a2063616c6c20746f206e6f6e2d636f6e74726163740000006044820152606401610608565b50816122bf565b6122bf83838151156124885781518083602001fd5b806040517f08c379a000000000000000000000000000000000000000000000000000000000815260040161060891906125ec565b8280546124c890612ab2565b90600052602060002090601f0160209004810192826124ea5760008555612530565b82601f1061250357805160ff1916838001178555612530565b82800160010185558215612530579182015b82811115612530578251825591602001919060010190612515565b5061253c929150612561565b5090565b508054600082559060005260206000209081019061255e9190612561565b50565b5b8082111561253c5760008155600101612562565b60005b83811015612591578181015183820152602001612579565b83811115611d7d5750506000910152565b600081518084526125ba816020860160208601612576565b601f017fffffffffffffffffffffffffffffffffffffffffffffffffffffffffffffffe0169290920160200192915050565b602081526000611d3260208301846125a2565b7f4e487b7100000000000000000000000000000000000000000000000000000000600052602160045260246000fd5b6020810160068310612669577f4e487b7100000000000000000000000000000000000000000000000000000000600052602160045260246000fd5b91905290565b7f4e487b7100000000000000000000000000000000000000000000000000000000600052604160045260246000fd5b604051601f82017fffffffffffffffffffffffffffffffffffffffffffffffffffffffffffffffe016810167ffffffffffffffff811182821017156126e5576126e561266f565b604052919050565b600082601f8301126126fe57600080fd5b813567ffffffffffffffff8111156127185761271861266f565b61274960207fffffffffffffffffffffffffffffffffffffffffffffffffffffffffffffffe0601f8401160161269e565b81815284602083860101111561275e57600080fd5b816020850160208301376000918101602001919091529392505050565b6000806040838503121561278e57600080fd5b823567ffffffffffffffff808211156127a657600080fd5b6127b2868387016126ed565b935060208501359150808211156127c857600080fd5b506127d5858286016126ed565b9150509250929050565b803573ffffffffffffffffffffffffffffffffffffffff8116811461280357600080fd5b919050565b600080600080600080600060e0888a03121561282357600080fd5b61282c886127df565b965061283a602089016127df565b95506040880135945060608801359350608088013567ffffffffffffffff8082111561286557600080fd5b6128718b838c016126ed565b945060a08a013591508082111561288757600080fd5b506128948a828b016126ed565b92505060c0880135905092959891949750929550565b600067ffffffffffffffff8211156128c4576128c461266f565b5060051b60200190565b600082601f8301126128df57600080fd5b813560206128f46128ef836128aa565b61269e565b82815260059290921b8401810191818101908684111561291357600080fd5b8286015b8481101561293557612928816127df565b8352918301918301612917565b509695505050505050565b60006020828403121561295257600080fd5b813567ffffffffffffffff81111561296957600080fd5b6122bf848285016128ce565b600080600080600060a0868803121561298d57600080fd5b853567ffffffffffffffff808211156129a557600080fd5b6129b189838a016128ce565b96506020915081880135818111156129c857600080fd5b8801601f81018a136129d957600080fd5b80356129e76128ef826128aa565b81815260059190911b8201840190848101908c831115612a0657600080fd5b928501925b82841015612a2457833582529285019290850190612a0b565b98505050506040880135915080821115612a3d57600080fd5b612a4989838a016126ed565b94506060880135915080821115612a5f57600080fd5b50612a6c888289016126ed565b95989497509295608001359392505050565b600060208284031215612a9057600080fd5b5035919050565b600060208284031215612aa957600080fd5b611d32826127df565b600181811c90821680612ac657607f821691505b60208210811415612b00577f4e487b7100000000000000000000000000000000000000000000000000000000600052602260045260246000fd5b50919050565b60008251612b18818460208701612576565b9190910192915050565b600060208284031215612b3457600080fd5b5051919050565b604081526000612b4e60408301856125a2565b8281036020840152611a1081856125a2565b8054600090600181811c9080831680612b7a57607f831692505b6020808410821415612bb5577f4e487b7100000000000000000000000000000000000000000000000000000000600052602260045260246000fd5b83885260208801828015612bd05760018114612bff57612c2a565b7fffffffffffffffffffffffffffffffffffffffffffffffffffffffffffffff00871682528282019750612c2a565b60008981526020902060005b87811015612c2457815484820152908601908401612c0b565b83019850505b5050505050505092915050565b604081526000612c4a6040830185612b60565b8281036020840152611a108185612b60565b7f4e487b7100000000000000000000000000000000000000000000000000000000600052603260045260246000fd5b7f4e487b7100000000000000000000000000000000000000000000000000000000600052601160045260246000fd5b60007fffffffffffffffffffffffffffffffffffffffffffffffffffffffffffffffff821415612cec57612cec612c8b565b5060010190565b60008219821115612d0657612d06612c8b565b500190565b6000817fffffffffffffffffffffffffffffffffffffffffffffffffffffffffffffffff0483118215151615612d4357612d43612c8b565b500290565b600082612d7e577f4e487b7100000000000000000000000000000000000000000000000000000000600052601260045260246000fd5b500490565b600082821015612d9557612d95612c8b565b500390565b600060208284031215612dac57600080fd5b81518015158114611d3257600080fdfea2646970667358221220fc1cce3b32a9fc898ffcda0ff3c8fa68da1cb235bdf31c0c1e9ac844660282af64736f6c63430008090033",
  "linkReferences": {},
  "deployedLinkReferences": {}
}